:100000000C9461000C947E000C947E000C947E0095
:100010000C947E000C947E000C947E000C947E0068
:100020000C947E000C947E000C947E000C947E0058
:100030000C947E000C947E000C947E000C947E0048
:100040000C9400010C947E000C947E000C947E00B5
:100050000C947E000C947E000C947E000C947E0028
:100060000C947E000C947E00000000002400270009
:100070002A0000000000250028002B0000000000DE
:1000800023002600290004040404040404040202DA
:100090000202020203030303030301020408102007
:1000A0004080010204081020010204081020000012
:1000B0000007000201000003040600000000000029
:1000C000000011241FBECFEFD4E0DEBFCDBF11E092
:1000D000A0E0B1E0E4EDF4E002C005900D92A8309C
:1000E000B107D9F711E0A8E0B1E001C01D92A3313A
:1000F000B107E1F70E94F9000C9468020C9400002B
:100100000F931F93982F162F042F80910001692FB2
:100110000E94CC0180910201612F0E94CC0180914C
:100120000401602F0E94CC011F910F9108958091CE
:1001300006010E941902892B09F445C0809108012B
:1001400090910901009759F481E090E060E070E03F
:1001500040E050E00E94800081E090E00DC08130DE
:10016000910579F481E090E061E070E040E050E0DA
:100170000E94800082E090E0909309018093080142
:100180001CC08230910559F480E090E060E070E09E
:1001900041E050E00E94800083E090E0EDCF0397C3
:1001A00061F480E090E061E070E040E050E00E94A7
:1001B0008000109209011092080168EE73E080E05F
:1001C00090E00E94480108958091000161E00E9442
:1001D000AC018091020161E00E94AC0180910401B8
:1001E00061E00E94AC018091060160E00E94AC01D8
:1001F00008950E9472010E94E4000E949700FDCFC2
:100200001F920F920FB60F9211242F933F938F934B
:100210009F93AF93BF9380910E0190910F01A09196
:100220001001B0911101309112010196A11DB11D73
:10023000232F2D5F2D3720F02D570196A11DB11DC5
:100240002093120180930E0190930F01A09310014F
:10025000B093110180910A0190910B01A0910C01C2
:10026000B0910D010196A11DB11D80930A019093DB
:100270000B01A0930C01B0930D01BF91AF919F9121
:100280008F913F912F910F900FBE0F901F90189557
:10029000EF92FF920F931F937B018C018FB7F8941D
:1002A00040910E0150910F01609110017091110168
:1002B0008FBF2FB7F89480910E0190910F01A091FC
:1002C0001001B09111012FBF841B950BA60BB70B2A
:1002D000E816F9060A071B0760F71F910F91FF90B8
:1002E000EF900895789484B5826084BD84B5816070
:1002F00084BD85B5826085BD85B5816085BDEEE62E
:10030000F0E0808181608083E1E8F0E080818260BC
:100310008083808181608083E0E8F0E0808181607B
:100320008083E1EBF0E0808184608083E0EBF0E0AB
:10033000808181608083EAE7F0E08081846080834F
:1003400080818260808380818160808380818068F9
:1003500080831092C1000895282F30E0C90186568D
:100360009F4FFC0194912A573F4FF90184918823B4
:1003700091F0E82FF0E0EE0FFF1FE859FF4FA59135
:10038000B491662329F48C91909589238C930895D8
:100390008C91892B8C930895482F50E0CA01825587
:1003A0009F4FFC012491CA0186569F4FFC019491F6
:1003B0004A575F4FFA0134913323D1F1222331F1AF
:1003C000233021F4809180008F7705C0243031F4F0
:1003D000809180008F7D8093800018C0213019F4B7
:1003E00084B58F7704C0223021F484B58F7D84BD1D
:1003F0000DC0263021F48091B0008F7705C02730E2
:1004000029F48091B0008F7D8093B000E32FF0E05D
:10041000EE0FFF1FEE58FF4FA591B491662329F40C
:100420008C91909589238C9308958C91892B8C9332
:100430000895682F70E0CB0182559F4FFC012491F5
:10044000CB0186569F4FFC0144916A577F4FFB01B9
:100450009491992319F420E030E038C0222331F13F
:10046000233021F4809180008F7705C0243031F44F
:10047000809180008F7D8093800018C0213019F416
:1004800084B58F7704C0223021F484B58F7D84BD7C
:100490000DC0263021F48091B0008F7705C0273041
:1004A00029F48091B0008F7D8093B000892F90E077
:1004B000880F991F84589F4FFC01A591B4918C918E
:1004C00020E030E0842311F021E030E0C9010895FC
:0404D000F894FFCFCE
:0804D400020003000400050012
:00000001FF
